{
  "contractName": "VeXBE",
  "abi": [
    {
      "anonymous": false,
      "inputs": [
        {
          "indexed": false,
          "internalType": "address",
          "name": "admin",
          "type": "address"
        }
      ],
      "name": "ApplyOwnership",
      "type": "event"
    },
    {
      "anonymous": false,
      "inputs": [
        {
          "indexed": false,
          "internalType": "address",
          "name": "admin",
          "type": "address"
        }
      ],
      "name": "CommitOwnership",
      "type": "event"
    },
    {
      "anonymous": false,
      "inputs": [
        {
          "indexed": true,
          "internalType": "address",
          "name": "provider",
          "type": "address"
        },
        {
          "indexed": false,
          "internalType": "uint256",
          "name": "value",
          "type": "uint256"
        },
        {
          "indexed": true,
          "internalType": "uint256",
          "name": "locktime",
          "type": "uint256"
        },
        {
          "indexed": false,
          "internalType": "int128",
          "name": "_type",
          "type": "int128"
        },
        {
          "indexed": false,
          "internalType": "uint256",
          "name": "ts",
          "type": "uint256"
        }
      ],
      "name": "Deposit",
      "type": "event"
    },
    {
      "anonymous": false,
      "inputs": [
        {
          "indexed": false,
          "internalType": "uint256",
          "name": "prevSupply",
          "type": "uint256"
        },
        {
          "indexed": false,
          "internalType": "uint256",
          "name": "supply",
          "type": "uint256"
        }
      ],
      "name": "Supply",
      "type": "event"
    },
    {
      "anonymous": false,
      "inputs": [
        {
          "indexed": true,
          "internalType": "address",
          "name": "provider",
          "type": "address"
        },
        {
          "indexed": false,
          "internalType": "uint256",
          "name": "value",
          "type": "uint256"
        },
        {
          "indexed": false,
          "internalType": "uint256",
          "name": "ts",
          "type": "uint256"
        }
      ],
      "name": "Withdraw",
      "type": "event"
    },
    {
      "inputs": [],
      "name": "CREATE_LOCK_TYPE",
      "outputs": [
        {
          "internalType": "int128",
          "name": "",
          "type": "int128"
        }
      ],
      "stateMutability": "view",
      "type": "function"
    },
    {
      "inputs": [],
      "name": "DEPOSIT_FOR_TYPE",
      "outputs": [
        {
          "internalType": "int128",
          "name": "",
          "type": "int128"
        }
      ],
      "stateMutability": "view",
      "type": "function"
    },
    {
      "inputs": [],
      "name": "INCREASE_LOCK_AMOUNT",
      "outputs": [
        {
          "internalType": "int128",
          "name": "",
          "type": "int128"
        }
      ],
      "stateMutability": "view",
      "type": "function"
    },
    {
      "inputs": [],
      "name": "INCREASE_UNLOCK_TIME",
      "outputs": [
        {
          "internalType": "int128",
          "name": "",
          "type": "int128"
        }
      ],
      "stateMutability": "view",
      "type": "function"
    },
    {
      "inputs": [],
      "name": "MAXTIME",
      "outputs": [
        {
          "internalType": "uint256",
          "name": "",
          "type": "uint256"
        }
      ],
      "stateMutability": "view",
      "type": "function"
    },
    {
      "inputs": [],
      "name": "MULTIPLIER",
      "outputs": [
        {
          "internalType": "uint256",
          "name": "",
          "type": "uint256"
        }
      ],
      "stateMutability": "view",
      "type": "function"
    },
    {
      "inputs": [],
      "name": "WEEK",
      "outputs": [
        {
          "internalType": "uint256",
          "name": "",
          "type": "uint256"
        }
      ],
      "stateMutability": "view",
      "type": "function"
    },
    {
      "inputs": [],
      "name": "YEAR",
      "outputs": [
        {
          "internalType": "uint256",
          "name": "",
          "type": "uint256"
        }
      ],
      "stateMutability": "view",
      "type": "function"
    },
    {
      "inputs": [],
      "name": "admin",
      "outputs": [
        {
          "internalType": "address",
          "name": "",
          "type": "address"
        }
      ],
      "stateMutability": "view",
      "type": "function"
    },
    {
      "inputs": [],
      "name": "controller",
      "outputs": [
        {
          "internalType": "address",
          "name": "",
          "type": "address"
        }
      ],
      "stateMutability": "view",
      "type": "function"
    },
    {
      "inputs": [
        {
          "internalType": "address",
          "name": "",
          "type": "address"
        },
        {
          "internalType": "address",
          "name": "",
          "type": "address"
        }
      ],
      "name": "createLockAllowance",
      "outputs": [
        {
          "internalType": "bool",
          "name": "",
          "type": "bool"
        }
      ],
      "stateMutability": "view",
      "type": "function"
    },
    {
      "inputs": [],
      "name": "decimals",
      "outputs": [
        {
          "internalType": "uint256",
          "name": "",
          "type": "uint256"
        }
      ],
      "stateMutability": "view",
      "type": "function"
    },
    {
      "inputs": [],
      "name": "epoch",
      "outputs": [
        {
          "internalType": "uint256",
          "name": "",
          "type": "uint256"
        }
      ],
      "stateMutability": "view",
      "type": "function"
    },
    {
      "inputs": [],
      "name": "futureAdmin",
      "outputs": [
        {
          "internalType": "address",
          "name": "",
          "type": "address"
        }
      ],
      "stateMutability": "view",
      "type": "function"
    },
    {
      "inputs": [
        {
          "internalType": "address",
          "name": "",
          "type": "address"
        }
      ],
      "name": "locked",
      "outputs": [
        {
          "internalType": "int128",
          "name": "amount",
          "type": "int128"
        },
        {
          "internalType": "uint256",
          "name": "end",
          "type": "uint256"
        }
      ],
      "stateMutability": "view",
      "type": "function"
    },
    {
      "inputs": [],
      "name": "minLockDuration",
      "outputs": [
        {
          "internalType": "uint256",
          "name": "",
          "type": "uint256"
        }
      ],
      "stateMutability": "view",
      "type": "function"
    },
    {
      "inputs": [],
      "name": "name",
      "outputs": [
        {
          "internalType": "string",
          "name": "",
          "type": "string"
        }
      ],
      "stateMutability": "view",
      "type": "function"
    },
    {
      "inputs": [
        {
          "internalType": "uint256",
          "name": "",
          "type": "uint256"
        }
      ],
      "name": "pointHistory",
      "outputs": [
        {
          "internalType": "int128",
          "name": "bias",
          "type": "int128"
        },
        {
          "internalType": "int128",
          "name": "slope",
          "type": "int128"
        },
        {
          "internalType": "uint256",
          "name": "ts",
          "type": "uint256"
        },
        {
          "internalType": "uint256",
          "name": "blk",
          "type": "uint256"
        }
      ],
      "stateMutability": "view",
      "type": "function"
    },
    {
      "inputs": [],
      "name": "registrationMediator",
      "outputs": [
        {
          "internalType": "contract ILockSubscription",
          "name": "",
          "type": "address"
        }
      ],
      "stateMutability": "view",
      "type": "function"
    },
    {
      "inputs": [
        {
          "internalType": "uint256",
          "name": "",
          "type": "uint256"
        }
      ],
      "name": "slopeChanges",
      "outputs": [
        {
          "internalType": "int128",
          "name": "",
          "type": "int128"
        }
      ],
      "stateMutability": "view",
      "type": "function"
    },
    {
      "inputs": [],
      "name": "supply",
      "outputs": [
        {
          "internalType": "uint256",
          "name": "",
          "type": "uint256"
        }
      ],
      "stateMutability": "view",
      "type": "function"
    },
    {
      "inputs": [],
      "name": "symbol",
      "outputs": [
        {
          "internalType": "string",
          "name": "",
          "type": "string"
        }
      ],
      "stateMutability": "view",
      "type": "function"
    },
    {
      "inputs": [
        {
          "internalType": "address",
          "name": "",
          "type": "address"
        }
      ],
      "name": "userPointEpoch",
      "outputs": [
        {
          "internalType": "uint256",
          "name": "",
          "type": "uint256"
        }
      ],
      "stateMutability": "view",
      "type": "function"
    },
    {
      "inputs": [
        {
          "internalType": "address",
          "name": "",
          "type": "address"
        },
        {
          "internalType": "uint256",
          "name": "",
          "type": "uint256"
        }
      ],
      "name": "userPointHistory",
      "outputs": [
        {
          "internalType": "int128",
          "name": "bias",
          "type": "int128"
        },
        {
          "internalType": "int128",
          "name": "slope",
          "type": "int128"
        },
        {
          "internalType": "uint256",
          "name": "ts",
          "type": "uint256"
        },
        {
          "internalType": "uint256",
          "name": "blk",
          "type": "uint256"
        }
      ],
      "stateMutability": "view",
      "type": "function"
    },
    {
      "inputs": [],
      "name": "version",
      "outputs": [
        {
          "internalType": "string",
          "name": "",
          "type": "string"
        }
      ],
      "stateMutability": "view",
      "type": "function"
    },
    {
      "inputs": [],
      "name": "votingStakingRewards",
      "outputs": [
        {
          "internalType": "address",
          "name": "",
          "type": "address"
        }
      ],
      "stateMutability": "view",
      "type": "function"
    },
    {
      "inputs": [
        {
          "internalType": "address",
          "name": "tokenAddr",
          "type": "address"
        },
        {
          "internalType": "address",
          "name": "_votingStakingRewards",
          "type": "address"
        },
        {
          "internalType": "address",
          "name": "_registrationMediator",
          "type": "address"
        },
        {
          "internalType": "uint256",
          "name": "_minLockDuration",
          "type": "uint256"
        },
        {
          "internalType": "string",
          "name": "_name",
          "type": "string"
        },
        {
          "internalType": "string",
          "name": "_symbol",
          "type": "string"
        },
        {
          "internalType": "string",
          "name": "_version",
          "type": "string"
        }
      ],
      "name": "configure",
      "outputs": [],
      "stateMutability": "nonpayable",
      "type": "function"
    },
    {
      "inputs": [
        {
          "internalType": "uint256",
          "name": "_minLockDuration",
          "type": "uint256"
        }
      ],
      "name": "setMinLockDuration",
      "outputs": [],
      "stateMutability": "nonpayable",
      "type": "function"
    },
    {
      "inputs": [
        {
          "internalType": "address",
          "name": "_votingStakingRewards",
          "type": "address"
        }
      ],
      "name": "setVoting",
      "outputs": [],
      "stateMutability": "nonpayable",
      "type": "function"
    },
    {
      "inputs": [
        {
          "internalType": "address",
          "name": "addr",
          "type": "address"
        }
      ],
      "name": "commitTransferOwnership",
      "outputs": [],
      "stateMutability": "nonpayable",
      "type": "function"
    },
    {
      "inputs": [],
      "name": "applyTransferOwnership",
      "outputs": [],
      "stateMutability": "nonpayable",
      "type": "function"
    },
    {
      "inputs": [
        {
          "internalType": "address",
          "name": "addr",
          "type": "address"
        }
      ],
      "name": "getLastUserSlope",
      "outputs": [
        {
          "internalType": "int128",
          "name": "",
          "type": "int128"
        }
      ],
      "stateMutability": "view",
      "type": "function"
    },
    {
      "inputs": [
        {
          "internalType": "address",
          "name": "addr",
          "type": "address"
        },
        {
          "internalType": "uint256",
          "name": "idx",
          "type": "uint256"
        }
      ],
      "name": "userPointHistoryTs",
      "outputs": [
        {
          "internalType": "uint256",
          "name": "",
          "type": "uint256"
        }
      ],
      "stateMutability": "view",
      "type": "function"
    },
    {
      "inputs": [
        {
          "internalType": "address",
          "name": "addr",
          "type": "address"
        }
      ],
      "name": "lockedEnd",
      "outputs": [
        {
          "internalType": "uint256",
          "name": "",
          "type": "uint256"
        }
      ],
      "stateMutability": "view",
      "type": "function"
    },
    {
      "inputs": [
        {
          "internalType": "address",
          "name": "addr",
          "type": "address"
        }
      ],
      "name": "lockStarts",
      "outputs": [
        {
          "internalType": "uint256",
          "name": "",
          "type": "uint256"
        }
      ],
      "stateMutability": "view",
      "type": "function"
    },
    {
      "inputs": [
        {
          "internalType": "address",
          "name": "addr",
          "type": "address"
        }
      ],
      "name": "lockedAmount",
      "outputs": [
        {
          "internalType": "uint256",
          "name": "",
          "type": "uint256"
        }
      ],
      "stateMutability": "view",
      "type": "function"
    },
    {
      "inputs": [],
      "name": "checkpoint",
      "outputs": [],
      "stateMutability": "nonpayable",
      "type": "function"
    },
    {
      "inputs": [
        {
          "internalType": "address",
          "name": "_addr",
          "type": "address"
        },
        {
          "internalType": "uint256",
          "name": "_value",
          "type": "uint256"
        }
      ],
      "name": "depositFor",
      "outputs": [],
      "stateMutability": "nonpayable",
      "type": "function"
    },
    {
      "inputs": [
        {
          "internalType": "uint256",
          "name": "_value",
          "type": "uint256"
        },
        {
          "internalType": "uint256",
          "name": "_unlockTime",
          "type": "uint256"
        }
      ],
      "name": "createLock",
      "outputs": [],
      "stateMutability": "nonpayable",
      "type": "function"
    },
    {
      "inputs": [
        {
          "internalType": "address",
          "name": "_sender",
          "type": "address"
        },
        {
          "internalType": "bool",
          "name": "_status",
          "type": "bool"
        }
      ],
      "name": "setCreateLockAllowance",
      "outputs": [],
      "stateMutability": "nonpayable",
      "type": "function"
    },
    {
      "inputs": [
        {
          "internalType": "address",
          "name": "_for",
          "type": "address"
        },
        {
          "internalType": "uint256",
          "name": "_value",
          "type": "uint256"
        },
        {
          "internalType": "uint256",
          "name": "_unlockTime",
          "type": "uint256"
        }
      ],
      "name": "createLockFor",
      "outputs": [],
      "stateMutability": "nonpayable",
      "type": "function"
    },
    {
      "inputs": [
        {
          "internalType": "uint256",
          "name": "_value",
          "type": "uint256"
        }
      ],
      "name": "increaseAmount",
      "outputs": [],
      "stateMutability": "nonpayable",
      "type": "function"
    },
    {
      "inputs": [
        {
          "internalType": "uint256",
          "name": "_unlockTime",
          "type": "uint256"
        }
      ],
      "name": "increaseUnlockTime",
      "outputs": [],
      "stateMutability": "nonpayable",
      "type": "function"
    },
    {
      "inputs": [],
      "name": "withdraw",
      "outputs": [],
      "stateMutability": "nonpayable",
      "type": "function"
    },
    {
      "inputs": [
        {
          "internalType": "address",
          "name": "addr",
          "type": "address"
        },
        {
          "internalType": "uint256",
          "name": "_t",
          "type": "uint256"
        }
      ],
      "name": "balanceOf",
      "outputs": [
        {
          "internalType": "uint256",
          "name": "",
          "type": "uint256"
        }
      ],
      "stateMutability": "view",
      "type": "function"
    },
    {
      "inputs": [
        {
          "internalType": "address",
          "name": "addr",
          "type": "address"
        }
      ],
      "name": "balanceOf",
      "outputs": [
        {
          "internalType": "uint256",
          "name": "",
          "type": "uint256"
        }
      ],
      "stateMutability": "view",
      "type": "function"
    },
    {
      "inputs": [
        {
          "internalType": "address",
          "name": "addr",
          "type": "address"
        },
        {
          "internalType": "uint256",
          "name": "_block",
          "type": "uint256"
        }
      ],
      "name": "balanceOfAt",
      "outputs": [
        {
          "internalType": "uint256",
          "name": "",
          "type": "uint256"
        }
      ],
      "stateMutability": "view",
      "type": "function"
    },
    {
      "inputs": [],
      "name": "lockedSupply",
      "outputs": [
        {
          "internalType": "uint256",
          "name": "",
          "type": "uint256"
        }
      ],
      "stateMutability": "view",
      "type": "function"
    },
    {
      "inputs": [],
      "name": "totalSupply",
      "outputs": [
        {
          "internalType": "uint256",
          "name": "",
          "type": "uint256"
        }
      ],
      "stateMutability": "view",
      "type": "function"
    },
    {
      "inputs": [
        {
          "internalType": "uint256",
          "name": "t",
          "type": "uint256"
        }
      ],
      "name": "totalSupply",
      "outputs": [
        {
          "internalType": "uint256",
          "name": "",
          "type": "uint256"
        }
      ],
      "stateMutability": "view",
      "type": "function"
    },
    {
      "inputs": [
        {
          "internalType": "uint256",
          "name": "_block",
          "type": "uint256"
        }
      ],
      "name": "totalSupplyAt",
      "outputs": [
        {
          "internalType": "uint256",
          "name": "",
          "type": "uint256"
        }
      ],
      "stateMutability": "view",
      "type": "function"
    },
    {
      "inputs": [
        {
          "internalType": "address",
          "name": "_newController",
          "type": "address"
        }
      ],
      "name": "changeController",
      "outputs": [],
      "stateMutability": "nonpayable",
      "type": "function"
    }
  ],
  "bytecode": "0x608060405260018055612e06806100176000396000f3fe608060405234801561001057600080fd5b506004361061030b5760003560e01c8063839145401161019d578063cbf9fe5f116100e9578063eac6a667116100a2578063f4359ce51161007c578063f4359ce5146109d8578063f52a36f7146109e0578063f77c4791146109fd578063f851a44014610a055761030b565b8063eac6a6671461097e578063ee00ef3a146109aa578063f3a6d608146109b25761030b565b8063cbf9fe5f146108ef578063d28d594414610938578063d59aa3de14610940578063d6a298e914610948578063df0ab9d314610950578063e1cebf0b146109585761030b565b8063a9a7a8b311610156578063c2c4c5c111610130578063c2c4c5c11461089c578063c4d07951146108a4578063c74ed2fe146108ca578063ca5c7b91146108e75761030b565b8063a9a7a8b314610854578063b52c05fe1461085c578063bd85b0391461087f5761030b565b806383914540146107dc5780638ad4c447146107e4578063900cf0cf1461080157806395d89b4114610809578063981b24d014610811578063a153e7081461082e5761030b565b80634cb654af1161025c5780636befe95d116102155780637b39ecd5116101ef5780637b39ecd5146107635780637c616fe61461076b5780637ef466af1461078857806381fc83bb146107b65761030b565b80636befe95d146106d557806370a08231146106fb578063765858b5146107215761030b565b80634cb654af146105135780634d144a01146105375780634deafcae1461053f5780634ee2cd7e1461056557806354fd4d501461059157806360195bd1146105995761030b565b806329b55ca7116102c957806334d901a4116102a357806334d901a4146104685780633a0af6bf146104c45780633ccfd60b146104e55780633cebb823146104ed5761030b565b806329b55ca7146104025780632f4f21e214610434578063313ce567146104605761030b565b8062fdd58e14610310578063047fc9aa1461034e578063059f8b161461035657806306fdde031461035e57806315456eba146103db57806318160ddd146103fa575b600080fd5b61033c6004803603604081101561032657600080fd5b506001600160a01b038135169060200135610a0d565b60408051918252519081900360200190f35b61033c610ad2565b61033c610ad8565b610366610ae4565b6040805160208082528351818301528351919283929083019185019080838360005b838110156103a0578181015183820152602001610388565b50505050905090810190601f1680156103cd5780820380516001836020036101000a031916815260200191505b509250505060405180910390f35b6103f8600480360360208110156103f157600080fd5b5035610b72565b005b61033c610ce2565b6103f86004803603606081101561041857600080fd5b506001600160a01b038135169060208101359060400135610cf3565b6103f86004803603604081101561044a57600080fd5b506001600160a01b038135169060200135610dc7565b61033c610f38565b6104946004803603604081101561047e57600080fd5b506001600160a01b038135169060200135610f3e565b60408051600f95860b860b815293850b90940b602084015282840191909152606082015290519081900360800190f35b6104cc610f79565b60408051600f92830b90920b8252519081900360200190f35b6103f8610f7e565b6103f86004803603602081101561050357600080fd5b50356001600160a01b0316611137565b61051b6111a6565b604080516001600160a01b039092168252519081900360200190f35b6104cc6111b5565b61033c6004803603602081101561055557600080fd5b50356001600160a01b03166111ba565b61033c6004803603604081101561057b57600080fd5b506001600160a01b0381351690602001356111d8565b61036661146d565b6103f8600480360360e08110156105af57600080fd5b6001600160a01b03823581169260208101358216926040820135909216916060820135919081019060a0810160808201356401000000008111156105f257600080fd5b82018360208201111561060457600080fd5b8035906020019184600183028401116401000000008311171561062657600080fd5b91939092909160208101903564010000000081111561064457600080fd5b82018360208201111561065657600080fd5b8035906020019184600183028401116401000000008311171561067857600080fd5b91939092909160208101903564010000000081111561069657600080fd5b8201836020820111156106a857600080fd5b803590602001918460018302840111640100000000831117156106ca57600080fd5b5090925090506114c8565b61033c600480360360208110156106eb57600080fd5b50356001600160a01b0316611708565b61033c6004803603602081101561071157600080fd5b50356001600160a01b0316611723565b61074f6004803603604081101561073757600080fd5b506001600160a01b038135811691602001351661172f565b604080519115158252519081900360200190f35b6104cc61174f565b6103f86004803603602081101561078157600080fd5b5035611754565b6103f86004803603604081101561079e57600080fd5b506001600160a01b0381351690602001351515611943565b61033c600480360360208110156107cc57600080fd5b50356001600160a01b031661197b565b61033c61198d565b610494600480360360208110156107fa57600080fd5b5035611995565b61033c6119c5565b6103666119cb565b61033c6004803603602081101561082757600080fd5b5035611a26565b61033c6004803603602081101561084457600080fd5b50356001600160a01b0316611bc2565b61051b611be4565b6103f86004803603604081101561087257600080fd5b5080359060200135611bf3565b61033c6004803603602081101561089557600080fd5b5035611c49565b6103f8611cbd565b6103f8600480360360208110156108ba57600080fd5b50356001600160a01b0316611cd4565b6103f8600480360360208110156108e057600080fd5b5035611d89565b61033c611dda565b6109156004803603602081101561090557600080fd5b50356001600160a01b0316611de0565b6040518083600f0b600f0b81526020018281526020019250505060405180910390f35b6104cc611e00565b61051b611e05565b61033c611e14565b6103f8611e1a565b6103f86004803603602081101561096e57600080fd5b50356001600160a01b0316611f02565b61033c6004803603604081101561099457600080fd5b506001600160a01b038135169060200135611f9e565b61033c611fc9565b6104cc600480360360208110156109c857600080fd5b50356001600160a01b0316611fd1565b61033c612009565b6104cc600480360360208110156109f657600080fd5b5035612010565b61051b612025565b61051b612034565b6001600160a01b03821660009081526008602052604081205480610a35576000915050610acc565b610a3d612ca5565b506001600160a01b0384166000908152600760209081526040808320848452825280832081516080810183528154600160801b8104600f90810b810b810b9583018690526001840154948301859052600290930154606083015292880390930291810b810b810b91909103810b810b808352919291900b1215610abf57600081525b51600f0b9150610acc9050565b92915050565b60025481565b670de0b6b3a764000081565b600d805460408051602060026001851615610100026000190190941693909304601f81018490048402820184019092528181529291830182828015610b6a5780601f10610b3f57610100808354040283529160200191610b6a565b820191906000526020600020905b815481529060010190602001808311610b4d57829003601f168201915b505050505081565b60026001541415610bb8576040805162461bcd60e51b815260206004820152601f6024820152600080516020612d83833981519152604482015290519081900360640190fd5b6002600155610bc5612cd3565b503360009081526003602090815260409182902082518084019093528054600f90810b810b900b8352600101549082015281610c35576040805162461bcd60e51b815260206004820152600a602482015269217a65726f56616c756560b01b604482015290519081900360640190fd5b60008160000151600f0b13610c85576040805162461bcd60e51b8152602060048201526011602482015270085e995c9bd31bd8dad959105b5bdd5b9d607a1b604482015290519081900360640190fd5b42816020015111610ccb576040805162461bcd60e51b815260206004820152600b60248201526a1b1bd8dad15e1c1a5c995960aa1b604482015290519081900360640190fd5b610cda33836000846002612043565b505060018055565b6000610ced42611c49565b90505b90565b60026001541415610d39576040805162461bcd60e51b815260206004820152601f6024820152600080516020612d83833981519152604482015290519081900360640190fd5b6002600155600a546001600160a01b03163314610db3573360009081526014602090815260408083206001600160a01b038716845290915290205460ff16610db3576040805162461bcd60e51b815260206004820152600860248201526708585b1b1bddd95960c21b604482015290519081900360640190fd5b610dbe838383612349565b50506001805550565b60026001541415610e0d576040805162461bcd60e51b815260206004820152601f6024820152600080516020612d83833981519152604482015290519081900360640190fd5b6002600155610e1a612cd3565b506001600160a01b03821660009081526003602090815260409182902082518084019093528054600f90810b810b900b8352600101549082015281610e93576040805162461bcd60e51b815260206004820152600a602482015269217a65726f56616c756560b01b604482015290519081900360640190fd5b60008160000151600f0b13610ee3576040805162461bcd60e51b8152602060048201526011602482015270085e995c9bd31bd8dad959105b5bdd5b9d607a1b604482015290519081900360640190fd5b42816020015111610f29576040805162461bcd60e51b815260206004820152600b60248201526a1b1bd8dad15e1c1a5c995960aa1b604482015290519081900360640190fd5b610dbe83836000846000612043565b60105481565b6007602090815260009283526040808420909152908252902080546001820154600290920154600f82810b93600160801b909304900b919084565b600281565b60026001541415610fc4576040805162461bcd60e51b815260206004820152601f6024820152600080516020612d83833981519152604482015290519081900360640190fd5b6002600155610fd1612cd3565b503360009081526003602090815260409182902082518084019093528054600f90810b810b900b83526001015490820181905242101561104b576040805162461bcd60e51b815260206004820152601060248201526f1b1bd8dad11a591b9d115e1c1a5c995960821b604482015290519081900360640190fd5b8051600f0b611058612cd3565b5060006020808401828152828552338084526003909252604090922084518154600f9190910b6001600160801b03166001600160801b031990911617815591516001909201919091556002805483810390915583916110b8908380612543565b60408051848152426020820152815133927ff279e6a1f5e320cca91135676d9cb6e44ca8a08c0b88342bcdb1144f6511b568928290030190a260408051828152848303602082015281517f5e2aa66efd74cce82b21852e317e5490d9ecc9e6bb953ae24d90851258cc2f5c929181900390910190a15050600180555050565b600c546001600160a01b03163314611184576040805162461bcd60e51b815260206004820152600b60248201526a10b1b7b73a3937b63632b960a91b604482015290519081900360640190fd5b600c80546001600160a01b0319166001600160a01b0392909216919091179055565b6012546001600160a01b031681565b600081565b6001600160a01b031660009081526003602052604090206001015490565b60004382111561121a576040805162461bcd60e51b81526020600482015260086024820152671bdb9b1e54185cdd60c21b604482015290519081900360640190fd5b6001600160a01b038316600090815260086020526040812054815b60808110156112995781831061124a57611299565b6001600160a01b038616600090815260076020908152604080832060028688016001018190048086529190935292200154861061128957809350611290565b6001810392505b50600101611235565b506112a2612ca5565b506001600160a01b0385166000908152600760209081526040808320858452825280832081516080810183528154600f81810b810b810b8352600160801b909104810b810b900b9381019390935260018101549183019190915260020154606082015260055490916113148783612aa6565b905061131e612ca5565b50600081815260066020908152604080832081516080810183528154600f81810b810b810b8352600160801b909104810b810b900b938101939093526001810154918301919091526002015460608201529080848410156113ef57611381612ca5565b505050600180830160009081526006602090815260409182902082516080810184528154600f81810b810b810b8352600160801b909104810b810b900b9281019290925292830154818301819052600290930154606091820181905290840151918401519190039103611402565b8260600151430391508260400151420390505b60408301518215611421578284606001518c0383028161141e57fe5b04015b604087015160208801518851918303029003600f90810b810b8089526000910b1261145b5750509351600f0b9650610acc95505050505050565b60009950505050505050505050610acc565b600f805460408051602060026001851615610100026000190190941693909304601f81018490048402820184019092528181529291830182828015610b6a5780601f10610b3f57610100808354040283529160200191610b6a565b600054610100900460ff16806114e157506114e1612b06565b806114ef575060005460ff16155b61152a5760405162461bcd60e51b815260040180806020018281038252602e815260200180612da3602e913960400191505060405180910390fd5b600054610100900460ff16158015611555576000805460ff1961ff0019909116610100171660011790555b60118054336001600160a01b03199182168117909255600080805260066020908152437f54cdd369e4e8a8515e52ca72ec816c2101831ad1f18bf44102ed171459c9b4fa55427f54cdd369e4e8a8515e52ca72ec816c2101831ad1f18bf44102ed171459c9b4f955600c80549093169093179091556040805163313ce56760e01b8152905191926001600160a01b038f169263313ce567926004808201939291829003018186803b15801561160957600080fd5b505afa15801561161d573d6000803e3d6000fd5b505050506040513d602081101561163357600080fd5b505160ff9081169150811115611683576040805162461bcd60e51b815260206004820152601060248201526f646563696d616c734f766572666c6f7760801b604482015290519081900360640190fd5b6010819055611694600d8989612cea565b506116a1600e8787612cea565b506116ae600f8585612cea565b50600a80546001600160a01b03808e166001600160a01b031992831617909255600b8054928d16929091169190911790556116e889612b17565b5080156116fb576000805461ff00191690555b5050505050505050505050565b6001600160a01b031660009081526004602052604090205490565b6000610acc8242610a0d565b601460209081526000928352604080842090915290825290205460ff1681565b600381565b6002600154141561179a576040805162461bcd60e51b815260206004820152601f6024820152600080516020612d83833981519152604482015290519081900360640190fd5b60026001556117a7612cd3565b503360009081526003602090815260409182902082518084019093528054600f90810b810b900b83526001015490820181905262093a8080840402904210611824576040805162461bcd60e51b815260206004820152600b60248201526a1b1bd8dad15e1c1a5c995960aa1b604482015290519081900360640190fd5b60008260000151600f0b13611874576040805162461bcd60e51b8152602060048201526011602482015270085e995c9bd31bd8dad959105b5bdd5b9d607a1b604482015290519081900360640190fd5b816020015181116118cc576040805162461bcd60e51b815260206004820152601b60248201527f63616e4f6e6c79496e6372656173654c6f636b4475726174696f6e0000000000604482015290519081900360640190fd5b6118e04263039ada0063ffffffff612b6a16565b811115611934576040805162461bcd60e51b815260206004820152601960248201527f6c6f636b4f6e6c79546f56616c696446757475726554696d6500000000000000604482015290519081900360640190fd5b610dbe33600083856003612043565b3360009081526014602090815260408083206001600160a01b0395909516835293905291909120805460ff1916911515919091179055565b60086020526000908152604090205481565b6301e1338081565b600660205260009081526040902080546001820154600290920154600f82810b93600160801b909304900b919084565b60055481565b600e805460408051602060026001851615610100026000190190941693909304601f81018490048402820184019092528181529291830182828015610b6a5780601f10610b3f57610100808354040283529160200191610b6a565b600043821115611a6f576040805162461bcd60e51b815260206004820152600f60248201526e1bdb9b1e54185cdd105b1b1bddd959608a1b604482015290519081900360640190fd5b6005546000611a7e8483612aa6565b9050611a88612ca5565b50600081815260066020908152604080832081516080810183528154600f81810b810b810b8352600160801b909104810b810b900b938101939093526001810154918301919091526002015460608201529083831015611b7c57611aea612ca5565b50600180840160009081526006602090815260409182902082516080810184528154600f81810b810b810b8352600160801b909104810b810b900b928101929092529283015491810191909152600290910154606080830182905284015114611b765782606001518160600151038360400151826040015103846060015189030281611b7257fe5b0491505b50611ba8565b43826060015114611ba8578160600151430382604001514203836060015188030281611ba457fe5b0490505b611bb88282846040015101612bcb565b9695505050505050565b6001600160a01b0316600090815260036020526040902054600f90810b900b90565b600a546001600160a01b031681565b60026001541415611c39576040805162461bcd60e51b815260206004820152601f6024820152600080516020612d83833981519152604482015290519081900360640190fd5b6002600155610cda338383612349565b600554600090611c57612ca5565b5060008181526006602090815260409182902082516080810184528154600f81810b810b810b8352600160801b909104810b810b900b928101929092526001810154928201929092526002909101546060820152611cb58185612bcb565b949350505050565b611cc5612cd3565b611cd160008283612543565b50565b6011546001600160a01b03163314611d1c576040805162461bcd60e51b815260206004820152600660248201526510b0b236b4b760d11b604482015290519081900360640190fd5b6001600160a01b038116611d67576040805162461bcd60e51b815260206004820152600d60248201526c6164647265737349735a65726f60981b604482015290519081900360640190fd5b600a80546001600160a01b0319166001600160a01b0392909216919091179055565b6011546001600160a01b03163314611dd1576040805162461bcd60e51b815260206004820152600660248201526510b0b236b4b760d11b604482015290519081900360640190fd5b611cd181612b17565b60025490565b60036020526000908152604090208054600190910154600f9190910b9082565b600181565b600b546001600160a01b031681565b60135481565b6011546001600160a01b03163314611e62576040805162461bcd60e51b815260206004820152600660248201526510b0b236b4b760d11b604482015290519081900360640190fd5b6012546001600160a01b031680611eae576040805162461bcd60e51b815260206004820152600b60248201526a61646d696e49735a65726f60a81b604482015290519081900360640190fd5b601180546001600160a01b0383166001600160a01b0319909116811790915560408051918252517febee2d5739011062cb4f14113f3b36bf0ffe3da5c0568f64189d1012a11891059181900360200190a150565b6011546001600160a01b03163314611f4a576040805162461bcd60e51b815260206004820152600660248201526510b0b236b4b760d11b604482015290519081900360640190fd5b601280546001600160a01b0383166001600160a01b0319909116811790915560408051918252517f2f56810a6bf40af059b96d3aea4db54081f378029a518390491093a7b67032e99181900360200190a150565b6001600160a01b03919091166000908152600760209081526040808320938352929052206001015490565b63039ada0081565b6001600160a01b031660009081526008602090815260408083205460078352818420908452909152902054600160801b9004600f0b90565b62093a8081565b600960205260009081526040902054600f0b81565b600c546001600160a01b031681565b6011546001600160a01b031681565b61204b612cd3565b50604080518082019091528251600f0b81526020808401519082015260025461207a818763ffffffff612b6a16565b600255612085612cd3565b508361209087612c96565b6120d2576040805162461bcd60e51b815260206004820152600e60248201526d042c6dedceccae4e892dce86264760931b604482015290519081900360640190fd5b82518701600f90810b900b835285156120ed57602083018690525b6001600160a01b038816600090815260036020908152604090912084518154600f9190910b6001600160801b03166001600160801b03199091161781559084015160019091015561213f888285612543565b8251600a54604080516370a0823160e01b81526001600160a01b038c811660048301529151600f9490940b9391909216916370a08231916024808301926020929190829003018186803b15801561219557600080fd5b505afa1580156121a9573d6000803e3d6000fd5b505050506040513d60208110156121bf57600080fd5b50511015612205576040805162461bcd60e51b815260206004820152600e60248201526d6e6f74456e6f7567685374616b6560901b604482015290519081900360640190fd5b600b546001600160a01b03898116600081815260046020818152604080842054918a01518a51825163127d4d4d60e01b81529485019690965260248401929092526044830191909152600f9390930b60648201529151929093169263127d4d4d9260848084019382900301818387803b15801561228157600080fd5b505af1158015612295573d6000803e3d6000fd5b505050508260200151886001600160a01b03167f4566dfc29f6f11d13a418c26a02bef7c28bae749d4de47e4e6a7cddea6730d598987426040518084815260200183600f0b600f0b8152602001828152602001935050505060405180910390a37f5e2aa66efd74cce82b21852e317e5490d9ecc9e6bb953ae24d90851258cc2f5c82612327818a63ffffffff612b6a16565b6040805192835260208301919091528051918290030190a15050505050505050565b62093a8080820402612359612cd3565b506001600160a01b03841660009081526003602090815260409182902082518084019093528054600f90810b810b900b83526001015490820152836123d2576040805162461bcd60e51b815260206004820152600a602482015269217a65726f56616c756560b01b604482015290519081900360640190fd5b8051600f0b15612429576040805162461bcd60e51b815260206004820152601760248201527f2177697468647261774f6c64546f6b656e734669727374000000000000000000604482015290519081900360640190fd5b42821161246b576040805162461bcd60e51b815260206004820152600b60248201526a2166757475726554696d6560a81b604482015290519081900360640190fd5b42601354018210156124b7576040805162461bcd60e51b815260206004820152601060248201526f10b6b4b72637b1b5a23ab930ba34b7b760811b604482015290519081900360640190fd5b6124cb4263039ada0063ffffffff612b6a16565b821115612513576040805162461bcd60e51b8152602060048201526011602482015270696e76616c696446757475726554696d6560781b604482015290519081900360640190fd5b6001600160a01b038516600090815260046020526040902042905561253c858584846001612043565b5050505050565b61254b612ca5565b612553612ca5565b6000806001600160a01b038716156126475742866020015111801561257f575060008660000151600f0b135b156125ab57855163039ada00600f91820b04810b810b602086810182905288015142900302810b900b84525b4285602001511180156125c5575060008560000151600f0b135b156125f157845163039ada00600f91820b04810b810b602085810182905287015142900302810b900b83525b602080870151600090815260098252604090205490860151600f9190910b9250156126475785602001518560200151141561262d575080612647565b50602080850151600090815260099091526040902054600f0b5b61264f612ca5565b5060408051608081018252600080825260208201524291810191909152436060820152600554156126d2575060055460009081526006602090815260409182902082516080810184528154600f81810b810b810b8352600160801b909104810b810b900b9281019290925260018101549282019290925260029091015460608201525b6126da612ca5565b506040810151819060009042111561270f578260400151420383606001514303670de0b6b3a7640000028161270b57fe5b0490505b600062093a808085604001518161272257fe5b0402905060005b60ff8110156128685762093a80919091019060004283111561274d57429250612761565b50600082815260096020526040902054600f0b5b604086015160208701805188519286038102909203600f90810b810b808a52928401810b810b909152600091900b121561279a57600086525b60008660200151600f0b12156127b257600060208701525b6040808701849052850151670de0b6b3a764000090840385026060878101519290910490910190870152600580546001019055428314156127f95750436060860152612868565b60055460009081526006602090815260409182902088518154928a0151600f90810b6001600160801b03908116600160801b029290910b81166001600160801b031990941693909317909216919091178155908701516001820155606087015160029091015550600101612729565b506001600160a01b038b16156128cf576020808901518882015191860180519190920301600f90810b810b9182905289518951875191900301810b810b8652600091900b12156128ba57600060208501525b60008460000151600f0b12156128cf57600084525b6005546000908152600660209081526040918290208651815492880151600f90810b6001600160801b03908116600160801b029290910b81166001600160801b03199094169390931790921691909117815590850151600182015560608501516002909101556001600160a01b038b16156116fb57428a6020015111156129a557876020015186019550896020015189602001511415612973578660200151860395505b60208a810151600090815260099091526040902080546001600160801b0319166001600160801b03600f89900b161790555b4289602001511115612a0257896020015189602001511115612a02576020808801518a820151600090815260099092526040909120805491909603600f81900b6001600160801b03166001600160801b0319909216919091179095555b6001600160a01b038b1660008181526008602090815260408083208054600190810191829055428d84019081524360608f0190815296865260078552838620928652918452919093208b518154938d0151600f90810b6001600160801b03908116600160801b029290910b81166001600160801b03199095169490941790931692909217825591519181019190915590516002909101555050505050505050505050565b60008082815b6080811015612afc57818310612ac157612afc565b60028284016001018190046000818152600660205260409020909101548710612aec57809350612af3565b6001810392505b50600101612aac565b5090949350505050565b6000612b1130612c9f565b15905090565b63039ada008110612b65576040805162461bcd60e51b815260206004820152601360248201527210b130b226b4b72637b1b5a23ab930ba34b7b760691b604482015290519081900360640190fd5b601355565b600082820183811015612bc4576040805162461bcd60e51b815260206004820152601b60248201527f536166654d6174683a206164646974696f6e206f766572666c6f770000000000604482015290519081900360640190fd5b9392505050565b6000612bd5612ca5565b839050600062093a8080836040015181612beb57fe5b0402905060005b60ff811015612c745762093a809190910190600085831115612c1657859250612c2a565b50600082815260096020526040902054600f0b5b604084015160208501518551918503029003600f90810b900b845285831415612c535750612c74565b602084018051909101600f90810b900b905260408301829052600101612bf2565b5060008260000151600f0b1215612c8a57600082525b5051600f0b9392505050565b6001607f1b1190565b3b151590565b60405180608001604052806000600f0b81526020016000600f0b815260200160008152602001600081525090565b604080518082019091526000808252602082015290565b828054600181600116156101000203166002900490600052602060002090601f016020900481019282601f10612d2b5782800160ff19823516178555612d58565b82800160010185558215612d58579182015b82811115612d58578235825591602001919060010190612d3d565b50612d64929150612d68565b5090565b610cf091905b80821115612d645760008155600101612d6e56fe5265656e7472616e637947756172643a207265656e7472616e742063616c6c00496e697469616c697a61626c653a20636f6e747261637420697320616c726561647920696e697469616c697a6564a264697066735822122067e11ff03ba4ca3af59ab5407be049aa9b96534b39b1de4136fb8d779dcf7b5264736f6c63430006060033",
  "immutableReferences": {},
  "source": "pragma solidity ^0.6.0;\n\nimport \"@openzeppelin/contracts/token/ERC20/ERC20.sol\";\nimport \"@openzeppelin/contracts/token/ERC20/SafeERC20.sol\";\nimport \"@openzeppelin/contracts/utils/ReentrancyGuard.sol\";\nimport \"@openzeppelin/contracts/proxy/Initializable.sol\";\n\nimport \"./interfaces/ILockSubscription.sol\";\n\n// @title Voting Escrow XBE\n// @author Curve Finance | Translation to Solidity - Integral Team O\n// @license MIT\n// @notice Votes have a weight depending on time, so that users are\n//         committed to the future of (whatever they are voting for)\n// @dev Vote weight decays linearly over time. Lock time cannot be\n//     more than `MAXTIME` (2 years).\ncontract VeXBE is Initializable, ReentrancyGuard {\n    using SafeERC20 for IERC20;\n    using SafeMath for uint256;\n\n    // # Voting escrow to have time-weighted votes\n    // # Votes have a weight depending on time, so that users are committed\n    // # to the future of (whatever they are voting for).\n    // # The weight in this implementation is linear, and lock cannot be more than maxtime:\n    // # w ^\n    // # 1 +        /\n    // #   |      /\n    // #   |    /\n    // #   |  /\n    // #   |/\n    // # 0 +--------+------> time\n    // #       maxtime (2 years?)\n\n    struct Point {\n        int128 bias;\n        int128 slope; // - dweight / dt\n        uint256 ts;\n        uint256 blk; // block\n    }\n\n    struct LockedBalance {\n        int128 amount;\n        uint256 end;\n    }\n\n    event CommitOwnership(address admin);\n    event ApplyOwnership(address admin);\n    event Deposit(\n        address indexed provider,\n        uint256 value,\n        uint256 indexed locktime,\n        int128 _type,\n        uint256 ts\n    );\n    event Withdraw(address indexed provider, uint256 value, uint256 ts);\n    event Supply(uint256 prevSupply, uint256 supply);\n\n    int128 public constant DEPOSIT_FOR_TYPE = 0;\n    int128 public constant CREATE_LOCK_TYPE = 1;\n    int128 public constant INCREASE_LOCK_AMOUNT = 2;\n    int128 public constant INCREASE_UNLOCK_TIME = 3;\n\n    // General constants\n    uint256 public constant YEAR = 86400 * 365;\n    uint256 public constant WEEK = 7 * 86400; // all future times are rounded by week\n    uint256 public constant MAXTIME = 100 * WEEK; // 2 years (23.333 Months)\n    uint256 public constant MULTIPLIER = 10**18;\n\n    uint256 public supply;\n\n    mapping(address => LockedBalance) public locked;\n    mapping(address => uint256) internal _lockStarts;\n\n    uint256 public epoch;\n    mapping(uint256 => Point) public pointHistory; // epoch -> unsigned point /*Point[100000000000000000000000000000]*/\n\n    // Point[1000000000]\n    mapping(address => mapping(uint256 => Point)) public userPointHistory; // user -> Point[user_epoch]\n\n    mapping(address => uint256) public userPointEpoch;\n    mapping(uint256 => int128) public slopeChanges; // time -> signed slope change\n\n    address public votingStakingRewards;\n    ILockSubscription public registrationMediator;\n\n    address public controller;\n\n    string public name;\n    string public symbol;\n    string public version;\n    uint256 public decimals;\n\n    address public admin;\n    address public futureAdmin;\n\n    uint256 public minLockDuration;\n\n    mapping(address => mapping(address => bool)) public createLockAllowance;\n\n    modifier onlyAdmin() {\n        require(msg.sender == admin, \"!admin\");\n        _;\n    }\n\n    // \"\"\"\n    // @notice Contract constructor\n    // @param token_addr `ERC20CRV` token address\n    // @param _name Token name\n    // @param _symbol Token symbol\n    // @param _version Contract version - required for Aragon compatibility\n    // \"\"\"\n    function configure(\n        address tokenAddr,\n        address _votingStakingRewards,\n        address _registrationMediator,\n        uint256 _minLockDuration,\n        string calldata _name,\n        string calldata _symbol,\n        string calldata _version\n    ) external initializer {\n        admin = msg.sender;\n        pointHistory[0].blk = block.number;\n        pointHistory[0].ts = block.timestamp;\n        controller = msg.sender;\n        uint256 _decimals = ERC20(tokenAddr).decimals();\n        require(_decimals <= 255, \"decimalsOverflow\");\n        decimals = _decimals;\n        name = _name;\n        symbol = _symbol;\n        version = _version;\n        votingStakingRewards = _votingStakingRewards;\n        registrationMediator = ILockSubscription(_registrationMediator);\n\n        _setMinLockDuration(_minLockDuration);\n    }\n\n    function _setMinLockDuration(uint256 _minLockDuration) private {\n        require(_minLockDuration < MAXTIME, \"!badMinLockDuration\");\n        minLockDuration = _minLockDuration;\n    }\n\n    function setMinLockDuration(uint256 _minLockDuration) external onlyAdmin {\n        _setMinLockDuration(_minLockDuration);\n    }\n\n    function setVoting(address _votingStakingRewards) external onlyAdmin {\n        require(_votingStakingRewards != address(0), \"addressIsZero\");\n        votingStakingRewards = _votingStakingRewards;\n    }\n\n    // \"\"\"\n    // @notice Transfer ownership of VotingEscrow contract to `addr`\n    // @param addr Address to have ownership transferred to\n    // \"\"\"\n    function commitTransferOwnership(address addr) external onlyAdmin {\n        futureAdmin = addr;\n        emit CommitOwnership(addr);\n    }\n\n    // \"\"\"\n    // @notice Apply ownership transfer\n    // \"\"\"\n    function applyTransferOwnership() external onlyAdmin {\n        address _admin = futureAdmin;\n        require(_admin != address(0), \"adminIsZero\");\n        admin = _admin;\n        emit ApplyOwnership(_admin);\n    }\n\n    // \"\"\"\n    // @notice Get the most recently recorded rate of voting power decrease for `addr`\n    // @param addr Address of the user wallet\n    // @return Value of the slope\n    // \"\"\"\n    function getLastUserSlope(address addr) external view returns (int128) {\n        uint256 uepoch = userPointEpoch[addr];\n        return userPointHistory[addr][uepoch].slope;\n    }\n\n    // \"\"\"\n    // @notice Get the timestamp for checkpoint `_idx` for `_addr`\n    // @param _addr User wallet address\n    // @param _idx User epoch number\n    // @return Epoch time of the checkpoint\n    // \"\"\"\n    function userPointHistoryTs(address addr, uint256 idx)\n        external\n        view\n        returns (uint256)\n    {\n        return userPointHistory[addr][idx].ts;\n    }\n\n    // \"\"\"\n    // @notice Get timestamp when `_addr`'s lock finishes\n    // @param _addr User wallet\n    // @return Epoch time of the lock end\n    // \"\"\"\n    function lockedEnd(address addr) external view returns (uint256) {\n        return locked[addr].end;\n    }\n\n    function lockStarts(address addr) external view returns (uint256) {\n        return _lockStarts[addr];\n    }\n\n    function lockedAmount(address addr) external view returns (uint256) {\n        return uint256(locked[addr].amount);\n    }\n\n    // \"\"\"\n    // @notice Record global and per-user data to checkpoint\n    // @param addr User's wallet address. No user checkpoint if 0x0\n    // @param old_locked Pevious locked amount / end lock time for the user\n    // @param new_locked New locked amount / end lock time for the user\n    // \"\"\"\n    function _checkpoint(\n        address addr,\n        LockedBalance memory oldLocked,\n        LockedBalance memory newLocked\n    ) internal {\n        Point memory uOld;\n        Point memory uNew;\n        int128 oldDSlope = 0;\n        int128 newDSlope = 0;\n        // uint256 _epoch = epoch;\n\n        if (addr != address(0)) {\n            // # Calculate slopes and biases\n            // # Kept at zero when they have to\n            if (oldLocked.end > block.timestamp && oldLocked.amount > 0) {\n                uOld.slope = int128(uint256(oldLocked.amount) / MAXTIME);\n                uOld.bias =\n                    uOld.slope *\n                    int128(oldLocked.end - block.timestamp);\n            }\n            if (newLocked.end > block.timestamp && newLocked.amount > 0) {\n                uNew.slope = int128(uint256(newLocked.amount) / MAXTIME);\n                uNew.bias =\n                    uNew.slope *\n                    int128(newLocked.end - block.timestamp);\n            }\n\n            // # Read values of scheduled changes in the slope\n            // # old_locked.end can be in the past and in the future\n            // # new_locked.end can ONLY by in the FUTURE unless everything expired: than zeros\n            oldDSlope = slopeChanges[oldLocked.end];\n            if (newLocked.end != 0) {\n                if (newLocked.end == oldLocked.end) {\n                    newDSlope = oldDSlope;\n                } else {\n                    newDSlope = slopeChanges[newLocked.end];\n                }\n            }\n        }\n        Point memory lastPoint = Point({\n            bias: 0,\n            slope: 0,\n            ts: block.timestamp,\n            blk: block.number\n        });\n        if (\n            epoch > 0 /*_epoch*/\n        ) {\n            lastPoint = pointHistory[\n                epoch /*_epoch*/\n            ];\n        }\n        // uint256 lastCheckpoint = lastPoint.ts;\n\n        // # initial_last_point is used for extrapolation to calculate block number\n        // # (approximately, for *At methods) and save them\n        // # as we cannot figure that out exactly from inside the contract\n\n        Point memory initialLastPoint = lastPoint;\n        uint256 blockSlope = 0;\n        if (block.timestamp > lastPoint.ts) {\n            blockSlope =\n                (MULTIPLIER * (block.number - lastPoint.blk)) /\n                (block.timestamp - lastPoint.ts);\n        }\n\n        // # If last point is already recorded in this block, slope=0\n        // # But that's ok b/c we know the block in such case\n        //\n        // # Go over weeks to fill history and calculate what the current point is\n        uint256 tI = (lastPoint.ts / WEEK) * WEEK; /*lastCheckpoint*/\n\n        for (uint256 i = 0; i < 255; i++) {\n            // # Hopefully it won't happen that this won't get used in 5 years!\n            // # If it does, users will be able to withdraw but vote weight will be broken\n            tI += WEEK;\n            int128 dSlope = 0;\n\n            if (tI > block.timestamp) {\n                tI = block.timestamp;\n            } else {\n                dSlope = slopeChanges[tI];\n            }\n\n            lastPoint.bias -=\n                lastPoint.slope *\n                int128(\n                    tI - lastPoint.ts /*lastCheckpoint*/\n                );\n            lastPoint.slope += dSlope;\n\n            if (lastPoint.bias < 0) {\n                // # This can happen\n                lastPoint.bias = 0;\n            }\n\n            if (lastPoint.slope < 0) {\n                // # This cannot happen - just in case\n                lastPoint.slope = 0;\n            }\n\n            // lastCheckpoint = tI;\n            lastPoint.ts = tI;\n            lastPoint.blk =\n                initialLastPoint.blk +\n                (blockSlope * (tI - initialLastPoint.ts)) /\n                MULTIPLIER;\n            epoch += 1; /*_epoch*/\n\n            if (tI == block.timestamp) {\n                lastPoint.blk = block.number;\n                break;\n            } else {\n                pointHistory[\n                    epoch /*_epoch*/\n                ] = lastPoint;\n            }\n        }\n\n        // epoch = _epoch;\n        // # Now point_history is filled until t=now\n\n        if (addr != address(0)) {\n            // # If last point was in this block, the slope change has been applied already\n            // # But in such case we have 0 slope(s)\n            lastPoint.slope += (uNew.slope - uOld.slope);\n            lastPoint.bias += (uNew.bias - uOld.bias);\n            if (lastPoint.slope < 0) {\n                lastPoint.slope = 0;\n            }\n            if (lastPoint.bias < 0) {\n                lastPoint.bias = 0;\n            }\n        }\n\n        // # Record the changed point into history\n        pointHistory[\n            epoch /*_epoch*/\n        ] = lastPoint;\n\n        if (addr != address(0)) {\n            // # Schedule the slope changes (slope is going down)\n            // # We subtract new_user_slope from [new_locked.end]\n            // # and add old_user_slope to [old_locked.end]\n            if (oldLocked.end > block.timestamp) {\n                // # old_dslope was <something> - u_old.slope, so we cancel that\n                oldDSlope += uOld.slope;\n                if (newLocked.end == oldLocked.end) {\n                    oldDSlope -= uNew.slope;\n                }\n                slopeChanges[oldLocked.end] = oldDSlope;\n            }\n            if (newLocked.end > block.timestamp) {\n                if (newLocked.end > oldLocked.end) {\n                    newDSlope -= uNew.slope;\n                    slopeChanges[newLocked.end] = newDSlope;\n                }\n                // else: we recorded it already in old_dslope\n            }\n\n            // Now handle user history\n            // uint256 userEpoch = userPointEpoch[addr] + 1;\n\n            userPointEpoch[addr] += 1; //= userPointEpoch[addr] + 1/*userEpoch*/;\n            uNew.ts = block.timestamp;\n            uNew.blk = block.number;\n            userPointHistory[addr][\n                userPointEpoch[addr] /*userEpoch*/\n            ] = uNew;\n        }\n    }\n\n    function _canConvertInt128(uint256 value) internal pure returns (bool) {\n        return value < 2**127;\n    }\n\n    // \"\"\"\n    // @notice Deposit and lock tokens for a user\n    // @param _addr User's wallet address\n    // @param _value Amount to deposit\n    // @param unlock_time New time when to unlock the tokens, or 0 if unchanged\n    // @param locked_balance Previous locked amount / timestamp\n    // \"\"\"\n    function _depositFor(\n        address _addr,\n        uint256 _value,\n        uint256 unlockTime,\n        LockedBalance memory lockedBalance,\n        int128 _type\n    ) internal {\n        LockedBalance memory _locked = LockedBalance({\n            amount: lockedBalance.amount,\n            end: lockedBalance.end\n        });\n        uint256 supplyBefore = supply;\n\n        supply = supplyBefore.add(_value);\n        LockedBalance memory oldLocked = lockedBalance;\n        // # Adding to existing lock, or if a lock is expired - creating a new one\n\n        require(_canConvertInt128(_value), \"!convertInt128\");\n        _locked.amount += int128(_value);\n        if (unlockTime != 0) {\n            _locked.end = unlockTime;\n        }\n        locked[_addr] = _locked;\n\n        // # Possibilities:\n        // # Both old_locked.end could be current or expired (>/< block.timestamp)\n        // # value == 0 (extend lock) or value > 0 (add to lock or extend lock)\n        // # _locked.end > block.timestamp (always)\n        _checkpoint(_addr, oldLocked, _locked);\n\n        require(\n            IERC20(votingStakingRewards).balanceOf(_addr) >=\n                uint256(_locked.amount),\n            \"notEnoughStake\"\n        );\n\n        registrationMediator.processLockEvent(\n            _addr,\n            _lockStarts[_addr],\n            _locked.end,\n            uint256(_locked.amount)\n        );\n\n        emit Deposit(_addr, _value, _locked.end, _type, block.timestamp);\n        emit Supply(supplyBefore, supplyBefore.add(_value));\n    }\n\n    // \"\"\"\n    // @notice Record global data to checkpoint\n    // \"\"\"\n    function checkpoint() external {\n        LockedBalance memory _emptyBalance;\n        _checkpoint(address(0), _emptyBalance, _emptyBalance);\n    }\n\n    // \"\"\"\n    // @notice Deposit `_value` tokens for `_addr` and add to the lock\n    // @dev Anyone (even a smart contract) can deposit for someone else, but\n    //      cannot extend their locktime and deposit for a brand new user\n    // @param _addr User's wallet address\n    // @param _value Amount to add to user's lock\n    // \"\"\"\n    function depositFor(address _addr, uint256 _value) external nonReentrant {\n        LockedBalance memory _locked = locked[_addr];\n        require(_value > 0, \"!zeroValue\");\n        require(_locked.amount > 0, \"!zeroLockedAmount\");\n        require(_locked.end > block.timestamp, \"lockExpired\");\n        _depositFor(_addr, _value, 0, _locked, DEPOSIT_FOR_TYPE);\n    }\n\n    // \"\"\"\n    // @notice Deposit `_value` tokens for `msg.sender` and lock until `_unlock_time`\n    // @param _value Amount to deposit\n    // @param _unlock_time Epoch time when tokens unlock, rounded down to whole weeks\n    // \"\"\"\n    function createLock(uint256 _value, uint256 _unlockTime)\n        external\n        nonReentrant\n    {\n        // assertNotContract(msg.sender);\n        _createLockFor(msg.sender, _value, _unlockTime);\n    }\n\n    function setCreateLockAllowance(address _sender, bool _status) external {\n        createLockAllowance[msg.sender][_sender] = _status;\n    }\n\n    function _createLockFor(\n        address _for,\n        uint256 _value,\n        uint256 _unlockTime\n    ) internal {\n        uint256 unlockTime = (_unlockTime / WEEK) * WEEK; // # Locktime is rounded down to weeks\n        LockedBalance memory _locked = locked[_for];\n\n        require(_value > 0, \"!zeroValue\");\n        require(_locked.amount == 0, \"!withdrawOldTokensFirst\");\n        require(unlockTime > block.timestamp, \"!futureTime\");\n        require(\n            unlockTime >= minLockDuration + block.timestamp,\n            \"!minLockDuration\"\n        );\n        require(\n            unlockTime <= block.timestamp.add(MAXTIME),\n            \"invalidFutureTime\"\n        );\n\n        _lockStarts[_for] = block.timestamp;\n\n        _depositFor(_for, _value, unlockTime, _locked, CREATE_LOCK_TYPE);\n    }\n\n    function createLockFor(\n        address _for,\n        uint256 _value,\n        uint256 _unlockTime\n    ) external nonReentrant {\n        if (msg.sender != votingStakingRewards) {\n            require(createLockAllowance[msg.sender][_for], \"!allowed\");\n        }\n        _createLockFor(_for, _value, _unlockTime);\n    }\n\n    // \"\"\"\n    // @notice Deposit `_value` additional tokens for `msg.sender`\n    //         without modifying the unlock time\n    // @param _value Amount of tokens to deposit and add to the lock\n    // \"\"\"\n    function increaseAmount(uint256 _value) external nonReentrant {\n        // assertNotContract(msg.sender);\n        LockedBalance memory _locked = locked[msg.sender];\n        require(_value > 0, \"!zeroValue\");\n        require(_locked.amount > 0, \"!zeroLockedAmount\");\n        require(_locked.end > block.timestamp, \"lockExpired\");\n        _depositFor(msg.sender, _value, 0, _locked, INCREASE_LOCK_AMOUNT);\n    }\n\n    // \"\"\"\n    // @notice Extend the unlock time for `msg.sender` to `_unlock_time`\n    // @param _unlock_time New epoch time for unlocking\n    // \"\"\"\n    function increaseUnlockTime(uint256 _unlockTime) external nonReentrant {\n        // assertNotContract(msg.sender);\n        LockedBalance memory _locked = locked[msg.sender];\n        uint256 unlockTime = (_unlockTime / WEEK) * WEEK; // Locktime is rounded down to weeks\n\n        require(_locked.end > block.timestamp, \"lockExpired\");\n        require(_locked.amount > 0, \"!zeroLockedAmount\");\n        require(unlockTime > _locked.end, \"canOnlyIncreaseLockDuration\");\n        require(\n            unlockTime <= block.timestamp.add(MAXTIME),\n            \"lockOnlyToValidFutureTime\"\n        );\n\n        _depositFor(msg.sender, 0, unlockTime, _locked, INCREASE_UNLOCK_TIME);\n    }\n\n    // \"\"\"\n    // @notice Withdraw all tokens for `msg.sender`\n    // @dev Only possible if the lock has expired\n    // \"\"\"\n    function withdraw() external nonReentrant {\n        LockedBalance memory _locked = locked[msg.sender];\n        require(block.timestamp >= _locked.end, \"lockDidntExpired\");\n        uint256 value = uint256(_locked.amount);\n\n        LockedBalance memory oldLocked = _locked;\n        _locked.end = 0;\n        _locked.amount = 0;\n        locked[msg.sender] = _locked;\n        uint256 supplyBefore = supply;\n        supply = supplyBefore - value;\n\n        // # old_locked can have either expired <= timestamp or zero end\n        // # _locked has only 0 end\n        // # Both can have >= 0 amount\n        _checkpoint(msg.sender, oldLocked, _locked);\n\n        emit Withdraw(msg.sender, value, block.timestamp);\n        emit Supply(supplyBefore, supplyBefore - value);\n    }\n\n    // \"\"\"\n    // @notice Binary search to estimate timestamp for block number\n    // @param _block Block to find\n    // @param max_epoch Don't go beyond this epoch\n    // @return Approximate timestamp for block\n    // \"\"\"\n    function findBlockEpoch(uint256 _block, uint256 maxEpoch)\n        internal\n        view\n        returns (uint256)\n    {\n        uint256 _min = 0;\n        uint256 _max = maxEpoch;\n        for (uint256 i = 0; i < 128; i++) {\n            if (_min >= _max) {\n                break;\n            }\n            uint256 _mid = (_min + _max + 1) / 2;\n            if (pointHistory[_mid].blk <= _block) {\n                _min = _mid;\n            } else {\n                _max = _mid - 1;\n            }\n        }\n        return _min;\n    }\n\n    // \"\"\"\n    // @notice Get the current voting power for `msg.sender`\n    // @dev Adheres to the ERC20 `balanceOf` interface for Aragon compatibility\n    // @param addr User wallet address\n    // @param _t Epoch time to return voting power at\n    // @return User voting power\n    // \"\"\"\n    function balanceOf(address addr) public view returns (uint256) {\n        return balanceOf(addr, block.timestamp);\n    }\n\n    function balanceOf(address addr, uint256 _t) public view returns (uint256) {\n        uint256 _epoch = userPointEpoch[addr];\n        if (_epoch == 0) {\n            return 0;\n        } else {\n            Point memory lastPoint = userPointHistory[addr][_epoch];\n            lastPoint.bias -= lastPoint.slope * int128(_t - lastPoint.ts);\n            if (lastPoint.bias < 0) {\n                lastPoint.bias = 0;\n            }\n            return uint256(lastPoint.bias);\n        }\n    }\n\n    // \"\"\"\n    // @notice Measure voting power of `addr` at block height `_block`\n    // @dev Adheres to MiniMe `balanceOfAt` interface: https://github.com/Giveth/minime\n    // @param addr User's wallet address\n    // @param _block Block to calculate the voting power at\n    // @return Voting power\n    // \"\"\"\n    function balanceOfAt(address addr, uint256 _block)\n        external\n        view\n        returns (uint256)\n    {\n        // # Copying and pasting totalSupply code because Vyper cannot pass by\n        // # reference yet\n        require(_block <= block.number, \"onlyPast\");\n\n        // Binary search\n        uint256 _min = 0;\n        uint256 _max = userPointEpoch[addr];\n        for (uint256 i = 0; i < 128; i++) {\n            if (_min >= _max) {\n                break;\n            }\n            uint256 _mid = (_min + _max + 1) / 2;\n            if (userPointHistory[addr][_mid].blk <= _block) {\n                _min = _mid;\n            } else {\n                _max = _mid - 1;\n            }\n        }\n\n        Point memory upoint = userPointHistory[addr][_min];\n\n        uint256 maxEpoch = epoch;\n        uint256 _epoch = findBlockEpoch(_block, maxEpoch);\n        Point memory point0 = pointHistory[_epoch];\n        uint256 dBlock = 0;\n        uint256 dT = 0;\n        if (_epoch < maxEpoch) {\n            Point memory point1 = pointHistory[_epoch + 1];\n            dBlock = point1.blk - point0.blk;\n            dT = point1.ts - point0.ts;\n        } else {\n            dBlock = block.number - point0.blk;\n            dT = block.timestamp - point0.ts;\n        }\n        uint256 blockTime = point0.ts;\n        if (dBlock != 0) {\n            blockTime += (dT * (_block - point0.blk)) / dBlock;\n        }\n\n        upoint.bias -= upoint.slope * int128(blockTime - upoint.ts);\n        if (upoint.bias >= 0) {\n            return uint256(upoint.bias);\n        } else {\n            return 0;\n        }\n    }\n\n    // \"\"\"\n    // @notice Calculate total voting power at some point in the past\n    // @param point The point (bias/slope) to start search from\n    // @param t Time to calculate the total voting power at\n    // @return Total voting power at that time\n    // \"\"\"\n    function supplyAt(Point memory point, uint256 t)\n        internal\n        view\n        returns (uint256)\n    {\n        Point memory lastPoint = point;\n        uint256 tI = (lastPoint.ts / WEEK) * WEEK;\n        for (uint256 i = 0; i < 255; i++) {\n            tI += WEEK;\n            int128 dSlope = 0;\n            if (tI > t) {\n                tI = t;\n            } else {\n                dSlope = slopeChanges[tI];\n            }\n            lastPoint.bias -= lastPoint.slope * int128(tI - lastPoint.ts);\n            if (tI == t) {\n                break;\n            }\n            lastPoint.slope += dSlope;\n            lastPoint.ts = tI;\n        }\n\n        if (lastPoint.bias < 0) {\n            lastPoint.bias = 0;\n        }\n        return uint256(lastPoint.bias);\n    }\n\n    // \"\"\"\n    // @notice Calculate total voting power\n    // @dev Adheres to the ERC20 `totalSupply` interface for Aragon compatibility\n    // @return Total voting power\n    // \"\"\"\n    function totalSupply() external view returns (uint256) {\n        return totalSupply(block.timestamp);\n    }\n\n    // returns supply of locked tokens\n    function lockedSupply() external view returns (uint256) {\n        return supply;\n    }\n\n    function totalSupply(uint256 t) public view returns (uint256) {\n        uint256 _epoch = epoch;\n        Point memory lastPoint = pointHistory[_epoch];\n        return supplyAt(lastPoint, t);\n    }\n\n    // \"\"\"\n    // @notice Calculate total voting power at some point in the past\n    // @param _block Block to calculate the total voting power at\n    // @return Total voting power at `_block`\n    // \"\"\"\n    function totalSupplyAt(uint256 _block) external view returns (uint256) {\n        require(_block <= block.number, \"onlyPastAllowed\");\n        uint256 _epoch = epoch;\n        uint256 targetEpoch = findBlockEpoch(_block, _epoch);\n\n        Point memory point = pointHistory[targetEpoch];\n        uint256 dt = 0; // difference in total voting power between _epoch and targetEpoch\n\n        if (targetEpoch < _epoch) {\n            Point memory pointNext = pointHistory[targetEpoch + 1];\n            if (point.blk != pointNext.blk) {\n                dt =\n                    ((_block - point.blk) * (pointNext.ts - point.ts)) /\n                    (pointNext.blk - point.blk);\n            }\n        } else {\n            if (point.blk != block.number) {\n                dt =\n                    ((_block - point.blk) * (block.timestamp - point.ts)) /\n                    (block.number - point.blk);\n            }\n        }\n\n        // # Now dt contains info on how far are we beyond point\n        return supplyAt(point, point.ts + dt);\n    }\n\n    // \"\"\"\n    // @dev Dummy method required for Aragon compatibility\n    // \"\"\"\n    function changeController(address _newController) external {\n        require(msg.sender == controller, \"!controller\");\n        controller = _newController;\n    }\n}\n",
  "sourcePath": "/home/sylph/dev/sfxdx_ru/yeur/contracts/main/VeXBE.sol",
  "compiler": {
    "name": "solc",
    "version": "0.6.6+commit.6c089d02.Emscripten.clang"
  },
  "schemaVersion": "3.4.3",
  "updatedAt": "2021-10-26T05:53:14.246Z",
  "devdoc": {
    "methods": {}
  },
  "userdoc": {
    "methods": {}
  }
}